{
 "cells": [
  {
   "cell_type": "code",
   "execution_count": 1,
   "metadata": {},
   "outputs": [
    {
     "name": "stdout",
     "output_type": "stream",
     "text": [
      "our privkey: cb414a0fc88d796ad4094c7e18f5b780c073d6458189016376b8a8ed11006202\n",
      "our pubkey: 02986afea1478a0d047147fdf8e577db8171a5a785488fedc0dc4eb99a9649bb09\n",
      "\n",
      "to unconf addr: 2N17HJ88HfABXST6DtAZQT5N83GSj8StZqi\n",
      "to scriptPubKey: a9145640708a017baae6be092eeb2da6b8633833c6d687\n",
      "to blinding key: 022e9018b7e1f7f7bb2ab9d01bd8c02c0564d6a58a562a748d11dd60d2b0215042\n"
     ]
    }
   ],
   "source": [
    "import os\n",
    "import functools\n",
    "\n",
    "import wallycore as w\n",
    "\n",
    "\n",
    "BITCOIN = w.hex_to_bytes(\"5ac9f65c0efcc4775e0baec4ec03abdde22473cd3cf33c0419ca290e0751b225\")[::-1]\n",
    "\n",
    "\n",
    "input_tx = w.tx_from_hex(\"0200000001019e89368959e66921d2c81ecaa4dffb02855e215668e76bfa607fb02d2d2f003b0000000017160014328d198ae0e292e78a54727994bc54b66bc3c87dfdffffff030b9d043d60286407330e12001e539559f6227c9999abf251b7497bba53ac20cd7009b67565b370abf41d81fe0ed6378e7228e9ae01d1b72b69582f83db1fca5221480378d8b53305ed6482db0c8f5eb8b0ca3d5c314d7773c584faa8cf587ee81372441976a9145976d83033bde4f12713ae3706b25e92fb608b9188ac0bcf42f8b0786a9f61d050f81b46d1bae9b03b5fb379f53a6ac94dcd4c1f8db011093492a7587340e36f7cac4cf691ead4b19ce5f490776d3691f36c2a0123f943c60207bf26c5c94e2ea8288272b0bdd1c422c1dbaaad9881c084bfdfe47521df6ff317a914158d3001717754182dc9e250c4b177e6e273364e870125b251070e29ca19043cf33ccd7324e2ddab03ecc4ae0b5e77c4fc0e5cf6c95a0100000000000092a40000010000000000024730440220767fa04f5a6175bf515d35b5909f2f8ee7e9598567f5e94d444508d381e8040902206020573172c662c4805bb9c5a8d80083fa8abfcd8ab0471021ab843fac897e7c012102e76cea89d35bc941e08d5842476d0f0912538e7b68c1751da8f87447aa5887900043010001dbc86fe818a00dfb3deaba0fe9d74d16203ee73c357f4c97218f9616295814da8a6a0195eb1ea094597f875fb5c99aaed86c2b6c8c9a63a77fb404f04f3c4e09fd4d0b602300000000000000010d28013bd6c293ff8791d172520c5ecdceb4d4c4bbeac9d1f016cd9069624d606d5fe0641e36cce10328f2c9c481a7342c27ef81b0b8533a72b289dfc18942651c4c31b0497bcc21444fbf73214755791c32dba25508f20f33d2a171fb46f360cfc63677df9f696a4566ce9d305ff47d51a73c3e8ee56cd6b6a1b62bf606068da2145a3805de1dfbe8de65b997d261e27f7ce5a4233b410bb2a17fe903a3a6f5a907d0e2cc1b0c16dde9a4ed99c59b2e3f3db331c4d910ffb87fa7696136c1a7562fa32f84ef4b6e7a298053dc84a851798503200a006cbf403a741a13507c9f2c57ae2139b08974777f0245e5cb5c890626c6041d65bd15c0220f20f3823a88364d9f50dddeae1de77f5015c8749622a1e15d242b029a4810374dfb3297ce87f8e16bd84e4147bc03a7279c9a7cfb85669ea51a2f04e1126b150bd995191284d1ffa5fb904501d0076d179cbef13912bdc9ecd3db4c40ec2ecb1b6987d6d526443d02a35c260d721b321535ff4749bba2cb44a928e96af0955d68159ca501758abb3c97e5781e20d2e74bfdb8f1e342fe7023181006ba3ea3624d9ce831f998c2d9953475250726f940e5543204e447c0afc2e00b7ff08564db6e6933b1a82ce30c7bed97f3b58a154a932fb229533317edcc9bb4b338e43b2ac5a5c27380d7523230f7f99729a4000285b4427c9d79dd6508a81052106107a99b224e2e65fe5b5f94b71323f8cb55f8eda2283e464f35cc00dad0e5d6cfd104eef5c180683eb28040502937d1377d1c07f31d30ba7c3a11a88560078646c0b431fca020dde44b2f6258183aca426f67c3bc235d59a1680d1bc124dac0cbf4a7147d28dc7093e72dcd7259ecc75118d6b6fdcda5c66b761afdc749b8f27bc0d676e719df2850827389809215b96fc19458390892f98cc175e36cab798215f93d473561aaed05536272e97ac25a2e5915b543f058a03c9827d42525ecf6b8bb7f83440a9f2e7f6a672a918e291ec662eb044a76281c35369e1ce1a8fa78751691c3e17e409ea7c4272199aecac2ba51e7493941d5be901ff3daf66714bb066d8c00c25fbef8be50b7edfad99e96a27302f0850db4083a3c2bd7ffa367b3cb36ae3d64ed138a6b9b9da26e4b0d2beb9e6570beca85bdb5fe562122baa2791e34d0f102d15d3dfa293232fd0656012977f71c4e9f7f7579bf1d00cc414dc263a3189d9f508a8b16019f575150a632610a3dc1b50ec880cc8453a55af786ed86c0163501f0709a79565d273851a86ae49273adad202cc0f782f67953da4c442faefd903edbb30efe9489ace0802dd8063fdac5d9a9c9885536f8bfb86de8d65296cab722958366ae74c0e38e0b197eba10a930335d2f0945841cb66eea0958fc1eef40eeff80b6f87f3e46c3990b2ad27b3c7c89ac99f66e84458fc07ff09ed5ee96753b2fcbad4da7d0718fdc455c0fe9ebc614f072fb1da072564ba881044496f8757099663f36a269da6778a3d03904d0fa7619192cf28639cd359e1a7fd5a9a8e207d505c0764602a824d1b1540f17ab75d81e7435501018193fc6cbbee3921c8806b4f81246367fe523d9e32f8e5be8da29041940db0bcf0b2ae604ec665fea1e10b861e2c078aa09dcebb6cc283ab171598a799787a622fc5ea7ed63b558d020ee8c853f5ba888fd35bc851c1a2873531be58f82ef9d443edb5358698f0e6c4a7b133a22e1dbb4a8bd07bca9d08e0735b702acc9d3dfec7708002892676f738197ebf6790e9531727d98bd199883affc879c3579c05400a4db2e214f824e3ae37cdbc825ef2ec58bd861226bdf9be4bd81a1858d63050f58796d739d901ac4a8c0a29fe90db30ad58d075c5944e88ff2d46edac7e678faf889b4b681c6bf0890708f5e60ca80e5195b94cdae5bc3c89963f7634398d595219a6bfa1f512387b2006e85fdade17adce51d42061107b74a69a8961be3c3de86bd6caa77bb88a1f29b572c1c05b423bdde397cf238746b63f12b7a867baba644c3718acfc963ea2b9c0c96c493ed2fc1e2103c57fdb60dba24f94df7d008f96aaa6bd9f598eaab71c8d597224dd6259ce24b531def3b0c964c9a29f183311f5e30b76f667bba242ae11ab40f2e325a63cfcd4fe90f495d9533ef5307938ce2800fe9dfd6ce27590abf0c7e37639befb5751a950552cf19dc968c24dc727ca16cdaabf73ab7fcb14f5d5bd0a8735dd2b6957cd21b3a22c24641d215f5b60e79a5adc1aa06697a1adbc4d375798b586bf954af251c0f3aed359371fc7699a02824801edff2fe5fa63d7d94bae1b8ab02f49917ffadebb6fc8064484178313ce34d0a59ea07026ca5abcf6424e181954383ea820e77f01dc1807aebfde103aab79d49de697b640a2a41dcb3a69f340eb7f98b543694abfc93d35b4153d779811a313b335dac71b3512c4414082b15626a37f0fb82efd62cd23692e88d75501f1ab68a712bae7061a201e6b0caac0de300ea93ff6d52161ea13724d946ae0d3fc0aae0d1987d03a549ea481007546d5c3b89245d8eea2d8fce5b5ac8bde15b327fbc62bef5cd20b09bc5c6de1316a99a9d55c3f462dbe21860f43bca336f7e03c7e1a39af397ebd83571e2a0003be52b7d88404f1e1300dcd8fdd20e740ea0e5b58613dd0b19e219c05ff7d31c3f0c86a1f83b02c2d5e382e27d476f44b484e0dd9e82dfc1567e44e045482938100354722e57a36769d8b91b1d4064cb08c233519d636adf31fa49c75b067437b0ac52152079575b3d2b672433a1b865b5e8d82ad18980adad6cd26224859082e487e0573a8e24cb9f3e08dd02da28d70f6dd8cb1a029c175776d0db4f40102812fe9d1a32778317b61f27a96a6689ad1787a8b7a3672f9568a3b9f456039243202a1ef55f3a5c64dae11d58dbf931eceab8a21de2e7aaef7f47938d34240999ac3f66fcae1afbbdccffb56e4fbea05b14a6f64da770b3ff95471ce73d26f96b1549a9641d085af574fd9a2dc037382417dbd15c3b4c5c67c91b73fda65be7828e1045b1631a330882180068ad9fced2c8cb154281e584f63966c7ac5127397a10e4de98c6daec5676689db46c2950ebb84fc84d42a30c603df31f7bd1f44f6354217845b25219bf3a4e01674a7404add024bb2d5184582d8ea0a1005aa8e3abd24b0e4069de87c1ccb1654613a4e734eea3b6045025e5902c3e74796ba0911e40c4d814076422ffdb2eb9faf5079638a59d188304ffdd8b1635b585c881c37434e256c6df5193c3720c7973b14541ae7681214bd9387bbcdea3ecafd1103050371224ba5b9992058e7114502886b3dddd2901612a699713f2e0b659c1ffbe04b29971dd277971848c769dfaaa3b96a93b47e7f46e002c3f0ffa3937c36bb4bd034a5dd252ad9d39c70e9862390f5eb2d8aba7a15d6b77b5b027531af282e2cccac117548a8b5ca415595d2e8a2ae400366cfa5400c5bf51a729fd22ed50752b2b03d959bc3f0bef52c17e61ae16536d1d019454d9f6b9a38ffbc70706ab7fe4908c0bea9427547c8c9d9c4fdb4f25f1f26ea7f0a4a2a487c7639138de55bb2bc6e7d47a0241fbf347dd714767198fe85a0d294b938699f139e6a6f66e6916b566584811115591fa1f5e8561369b07c9155d28619df2537e651fcb4667f07ea5fd884779c7bb81af74b0987125aa915644a17b852b465661d0fcdb108ca76b51350635660f61e3b46df74b6b9877dbfab79fda8191e12a0f51fca7081cc5b91c576a99cba868c034ea04e0b4c2ccabada556187970fe0100f647301958c9771517a558ad6183a3f912b94030561948de2d2c44a3117e489de7b0568eee8bc15820a734a3b745eff696732fb660958b7f15b4298ed683b99dadcf4fbc002ead43fb792922c6a1ad69aa626fc4893daaa3c2ad0f90784f5872a115222472c6b2d1308f0b88486701566c86ee2ad03b3ce06206bfc6b205084469a84dfa7a7861889a5d5990a5f7a5177497e11f95c8af5fd192349b02b66af842f2eb6964b7ce201ecce6e3373e320e316a2844bcf121d409a4f8e3f7e73b02f93ff3601f7c1957aa8c3a34b743010001648b36c2dc789f234e93215078ca6b639471ca3fea3d56ac3a4013318ca62179b5ce2011cb7895348da8ca033ee5e9ed4d8d8cdb5ff602b20def28e41bf01564fd4d0b60230000000000000001a90b003b496a44674b56aa0a12fa0e1ae7b7fa72e231183cc7336c74b7669d1796d2b941f3eb1dd4125fc468b59a3e54d93716a3e5b29e73af97589a44299135d390f3bc1859d05917e8c0184e38b35bd5df862e549f7cd0b264a577b0c9cb37eb7c21bc937add9ad9307655180bf7618283053ae787ab57cd6cf9ef025d478df25f05a5f9c405a9dcfc4846f0bf07ee7dcdd71dde023a91b5ff6059e4dce036b21a5f5757d2ca4befbbf9a3a42774d5dbc66d02bd24a023848514f39b4cd4f437f3c303d0cb5b6f53755cc31ac1c94aaeae45c841f836df5f5736724fce2e856ee62b69ce37d2f2e24839682a1197a001790edd1ea630122c8a9f7cd4c30c7a84c7845fa2d5819800bfb02f105523e2d8b7e293a230331ee92e407fa5e2cb35e287ebcd589c309d8ea26fa5d1a831e1bfe323472c3071e513aeeead2e4d35cb42e18fcc1b676a62fa39e0c5352c088885fa908b90ca91fad24deb07edbc31948cf1dfbd20319a59810f026d43317797e8417ae420900a162157cfe130533d274c86617c099f93fbddc7b47583fe56706b64e206444795ab1b360b8959f394d5635f04e1934f87d1e6e95afe781771a5e61dd63934b55ceafced5dbf7f793264e08580b5dbc79d34e6abf3f16a0cb55915dd45c2011fa02e0b291f3cf5c6a0b6ebc20c6483d856bc6388cc2f650450ecc3ebe88828c3c81b0375c90d1ad9076260f64a650b6ba959c83ce62693c83af095997a47fc0684548597d16bf4881c26190d78b00f6de0d1f4f82c07c826ea53cfc7f3a705353676e1c25880ead92141a987a852e93e1758495289ef99d4836b46106c0d372e7f748daf4e34ec2a0c314a44a87685f1dd55162f0dd323e8af282c43563f3102911fd728f2e3e335129fdfb87367eea8d3d85042425c91dc4bd4cd67c97528228d385560f1ca65c11b2a4778c40fb9e6b69ae24fda815e9d0c7707ff01d08bee8a1ca6cacfe97381ff143cc4946e0b7336c53180c157f456640b0e7aba26e3242f00dd3446ba2ce86edc51e24758ad4889404d67012c0b6dfd56e0255130ce68673907228459ae0e187bbb31fbb2bddca1306448790584fe167a3b301b5425e5a3a222ae55bd755996ecf39ea082ce5e7b21c168dc6d2d45f47f378a005dd7cfbda8f584cc5f76ab136aa0d4baa297ecf923b03d991e979bf74a4a161a786741d5eeeb8283f9b9988d989971ad3e387c0867cd0fe2b904bdb8f407ff09a4c677677ca5fe2a8b49734f08ca4c0b8a7da4a1a22282765ee1dbe131617b33348bf8b0348de3b36b311489c490a1a846284103c59397c88f19dbd81c42119ea6501211f9b32a59eac0bcfdbddfd60679fbf79916d917dae79909f74a5bb056e13d8d7f423ffc339c9bad7d437fa4fd6e623392ea80d2843a263ff403988b281a82ce8f5a1f5cdaf4b2047fa05bcc44de46ec236339d15f88613852d0ba44589947f161266a564d79c260ba14cc414749bd100604c78f79c717dd4f64b395688c6341435c9f572bdce0f5d97bbb6f918cb014b06e64007ee705acdef2d16bdce61b552f76816c07d0b16b8431604c2732b7ee03a355e3e49b83318df6521119c9b113490bebb70f802131e55a65abf30545b90cfa1ab08306316f1b1f8f12895bb4c8dd8d62dad53cee296d7f8b130331f0eafdcbdb58111bd9b5bbb7a98db17b00407d381da42dcf858c9a5de51723da0905557f30fcdcc0c822668c3df19a0088dd4f8f4ae50863e2bea8fd96174600d0faec140ea6c9f1425830573801347ccec930df512c9768513ac074766662e511c6a8c39a09a0f736038dfc3482eee89d5198c70073985a353932586b3dc6691ae22b3bdacff918e86aa5efa72912d204b5b8c9771581c1ad10826347cd5fd8c40feb705f5048e0cb171719669310a2f4a4ef74eab392652dd2b9654deede138a9d834845917b01e79a6c8cd00978a4e4afbfa0c9cdea9d713f04c0b2a6109201ff18b3819950a1db361bbbed4f3f7e09ff57d97fff325e34804c8cc681ea20b2c90dbb6c4beb789498db24c97399932b2138b696966a484b5d1999631779bf5d9f1529c039ac1a26b1de2826b19e997c7fa035b0fee6798c3a79694da76b2c0b4a54753dbc63e66db6c0c09add35705562a76dd969b27540e65dd1967d2906536a9a98a35045fb3946d7a7da52573c4aca2ecc135c6fc1739766df4aabc60d1527aee5f9fd4b1c582439d4717a88a4b7c22e15f76d887374e74e3000d8f9a8590d32bebf287d53c408f8ec4b4ad0de779f9faad41c676ba2411ddd50037c1709fe24d42e7f11aa603f52595c725868cc5a72a88bc4b94b9c0881e2a788f5440a9c4d3d3fb6e6aa759ba93b22f47a1bd5fef5299976fc2f384e61d9560d337d0e7d02bf37ce2949d804856dfb6198db87dd4d35ec0d13054afe62fd7bae423fb44f76293899203f75c8d26395510cf16490358473b49e6da8f305bb5ecc435f0b7ba4a983b74c5840e134378725bbca10406d58dc0416835562547da72aa1bbb4218ae57d7089b401c966958e09d69de4ff8481b10882702b0278208cbeafe947b1fc581fcaae23f2c0d160867d55b7bdcc91867b7b3175bef276af7ffd04d65bee0de6c7c74a387a433e44f0926452e69db563872afd3175d5bb4023ce7c5874539d361fad015cdcc348eb69ab5af168b73b6ee5cb5dac19bcaeea60778bc71afcadef2d0c67ec0102a3b003894bc68837bf6d22341000f23a5b82e637ea166ab91904ea779f6d604dd367ee56f25aabcb873e37f21ba29a47b5724c29ca2f54a392e56eefddb1df797aca284e2b1145d21e5fbe02e2f1f8eabc2a0f5c11214ff2e585a8f58b67a63935a592b491833d92aeaef723ad2ffa741998885997a3802cb494b3e3e1956c0a5442b3cc76229006a5ae09c1cd2d8f2897c81b22e1e6f1419c86bbbc3bab551a42bd873d1d00099591eb6996aded5589a537bae9d9937f7ae06f201f1d847e37a8b656a302cf7b7dd1666bce34da53a13a1d4bf61fb166b5607826c76b8a3bf0ebffd5013c7dc637cc2d7fa9ac58f1bfb415dba466daddfcc611968784221a451f64e7aa08c3125f614484a7feedc15b247a03583d53ec4ef5164a6779a7a7c7bdc18c8a290e03e0ee94b7345daf322298ac5443305800ef460499ece5829574fcf17103a1906039c8e933bb0ba7332d03ea6a552ba2576e2aba53986a32045a4e0b9831e4ce106197b341d750412c3e763bf89a888176472dabc5c8e61a6219123945c6447d8dd2ab36a970c81d03fb4b4585606438f3d3616d9f5c04da84c0321494118d0a75f1891548bf801dd59127b7a85e23376bb170991531d21c98e681c8f26f4538b951c4f2d15ee13af92d50884ff2ac9f31b14a2b6c8fa7730edc6282277efa92e5cceb9b10bd31ef5289271fe4b63e3abaa45d15ad96f1a892df1b3564b3b980283caf7b450018ed5d3fc394eeceb2f115593fab54c3aa0a76033cc9661cf6a8106e24b9db450f73958810c20853b8d06600fdfc8da6e631154f24e95796712a5fa6b540a782cbaf81d8c58fe52bf7bbbab9599d9c911f92e49939cdd98c5c77e1bcd8dbcf3305b3f650cd7cc460954d4aec85fe8dabc75cae25dba743dd13cc13419e3d0962acf0e2027686828b917f20ea35d24d1dc01e3ea6c0d8b2e5f0f387fd88e86667e95ecca375c41a4247169f9da3762a339f4e6bbd87cf97f68648c324dceae407530720fb27bf8f633ebb3ed876b099f65df1571cf813fce0b333d5964e2ab01246541410b5062f9060c09cf99537c136cb443f9f2d27d25f54fb4413c13880ea382fb985ac8532d404551879ac8d683bfe0a2cbf065254409780a631482f36d4cd3f69f47299fe65188c5293f40d1d90718ff619357c40b2b93a58a151f55a7205a0201cb3548114af9726fc73bcf97700f4374633ab00a11530e7a1b306dc46dd00d95c4d4720df48c29875fdb4cea3c39189ec9f4c4dee433c2b6658f831b7591be6072716e540fac048d453e0d738febe372d28404bb4b663cb2d458b7670d1ded45d7cd29382bc0000\", w.WALLY_TX_FLAG_USE_ELEMENTS | w.WALLY_TX_FLAG_USE_WITNESS)\n",
    "\n",
    "# My address = BKpYNAv2mipYNKdbamaG64Xbwtee3UxB2ktAH3C6T32ni5fa5GhyWfbBHuzKPJbTHZ4QeDaVGFty1ut9\n",
    "wif_sk = \"cUPoX7Pqvgj56pDnKuUSo4iDhoiCLUE8bc3mqXxB9XToF3RrhLGf\"\n",
    "our_blinding_key = w.hex_to_bytes(\"e8ba74f899e6b06da05fb255511c7adcea41f186326ef4fc45290fa8043f7af5\")\n",
    "\n",
    "privkey = w.wif_to_bytes(wif_sk, 0xef, w.WALLY_WIF_FLAG_COMPRESSED)\n",
    "print(\"our privkey: {}\".format(w.hex_from_bytes(privkey)))\n",
    "pubkey = w.ec_public_key_from_private_key(privkey)\n",
    "print(\"our pubkey: {}\".format(w.hex_from_bytes(pubkey)))\n",
    "print()\n",
    "\n",
    "prev_hash = w.hex_to_bytes(\"82124f4c9f63a8211b3d0bad56d2d64e647f5f18a0b93334ba8f60e480e72a28\")[::-1]\n",
    "prev_vout = 0\n",
    "\n",
    "satoshi_out_amount = 79990000\n",
    "\n",
    "to_conf_addr = \"C6fMa73RJAc9oqcykuv8M7rBo8NDDneGGe234ygUAixTUEYQTvu8qNZDhVMqkGfFdYYjoESyVCuChm5v\"\n",
    "to_addr = w.confidential_addr_to_addr(to_conf_addr, w.WALLY_CA_PREFIX_LIQUID_REGTEST)\n",
    "to_blind_key = w.confidential_addr_to_ec_public_key(to_conf_addr, w.WALLY_CA_PREFIX_LIQUID_REGTEST)\n",
    "\n",
    "# assume this is a p2sh out\n",
    "decoded = w.base58_to_bytes(to_addr, w.BASE58_FLAG_CHECKSUM)\n",
    "to_scriptPubKey = bytearray([w.OP_HASH160, 20]) + decoded[1:] + bytearray([w.OP_EQUAL])\n",
    "print(\"to unconf addr: {}\".format(to_addr))\n",
    "print(\"to scriptPubKey: {}\".format(w.hex_from_bytes(to_scriptPubKey)))\n",
    "print(\"to blinding key: {}\".format(w.hex_from_bytes(to_blind_key)))"
   ]
  },
  {
   "cell_type": "code",
   "execution_count": 2,
   "metadata": {},
   "outputs": [],
   "source": [
    "tx = w.tx_init(2, 0, 1, 2)\n",
    "\n",
    "# allocate and add the input\n",
    "w.tx_add_elements_raw_input(\n",
    "    tx,\n",
    "    prev_hash,\n",
    "    prev_vout,\n",
    "    0xffffffff,\n",
    "    None, # scriptSig\n",
    "    None, # witness\n",
    "    None, # nonce\n",
    "    None, # entropy\n",
    "    None, # issuance amount\n",
    "    None, # inflation keys\n",
    "    None, # issuance amount rangeproof\n",
    "    None, # inflation keys rangeproof\n",
    "    None, # pegin witness\n",
    "    0)"
   ]
  },
  {
   "cell_type": "code",
   "execution_count": 8,
   "metadata": {},
   "outputs": [
    {
     "name": "stdout",
     "output_type": "stream",
     "text": [
      "sk: e8ba74f899e6b06da05fb255511c7adcea41f186326ef4fc45290fa8043f7af5\n"
     ]
    }
   ],
   "source": [
    "# this section should be repeated for each input\n",
    "prev_output_nonce = w.tx_get_output_nonce(input_tx, 0)\n",
    "prev_output_rangeproof = w.tx_get_output_rangeproof(input_tx, 0)\n",
    "prev_output_script = w.tx_get_output_script(input_tx, 0) # \"extra\"\n",
    "prev_output_asset_tag = w.tx_get_output_asset(input_tx, 0)\n",
    "prev_output_commitment = w.tx_get_output_value(input_tx, 0)\n",
    "\n",
    "print(\"sk: {}\".format(w.hex_from_bytes(our_blinding_key)))\n",
    "\n",
    "satoshi, asset_id, abf, vbf = w.asset_unblind(prev_output_nonce, our_blinding_key, prev_output_rangeproof, prev_output_commitment, prev_output_script, prev_output_asset_tag)\n",
    "\n",
    "input_assets = [asset_id]\n",
    "input_abfs = [abf]\n",
    "input_ags = [w.asset_generator_from_bytes(asset_id, abf)]\n",
    "input_vbfs = [vbf]\n",
    "input_values = [satoshi, satoshi_out_amount] # both input and output values???\n",
    "\n",
    "num_outputs = 1\n",
    "\n",
    "output_abfs = [bytearray(os.urandom(32)) for _ in range(num_outputs)]\n",
    "output_vbfs = [bytearray(os.urandom(32)) for _ in range(num_outputs - 1)]\n",
    "\n",
    "_abfs = functools.reduce(lambda x,y: x+y, input_abfs, b'')\n",
    "_vbfs = functools.reduce(lambda x,y: x+y, input_vbfs, b'')\n",
    "\n",
    "# copy stuff from the input and then push the outputs at the end\n",
    "_abfs_with_out = _abfs + functools.reduce(lambda x,y: x+y, output_abfs, b'')\n",
    "_vbfs_with_out = _vbfs + functools.reduce(lambda x,y: x+y, output_vbfs, b'')\n",
    "\n",
    "_assets = functools.reduce(lambda x,y: x+y, input_assets)\n",
    "_ags = functools.reduce(lambda x,y: x+y, input_ags)\n",
    "\n",
    "output_vbfs += [w.asset_final_vbf(input_values, 1, _abfs_with_out, _vbfs_with_out)]\n",
    "\n",
    "# this section should be repeated for each output\n",
    "eph_sk = os.urandom(32)\n",
    "eph_pk = w.ec_public_key_from_private_key(eph_sk)\n",
    "\n",
    "generator = w.asset_generator_from_bytes(BITCOIN, output_abfs[0])\n",
    "value_commitment = w.asset_value_commitment(satoshi_out_amount, output_vbfs[0], generator)\n",
    "rangeproof = w.asset_rangeproof(\n",
    "    satoshi_out_amount,\n",
    "    to_blind_key,\n",
    "    eph_sk,\n",
    "    BITCOIN,\n",
    "    output_abfs[0],\n",
    "    output_vbfs[0],\n",
    "    value_commitment,\n",
    "    to_scriptPubKey,\n",
    "    generator,\n",
    "    1, # min_value\n",
    "    0, # exponent\n",
    "    36 # bits\n",
    ")\n",
    "\n",
    "surjectionproof = w.asset_surjectionproof(\n",
    "    BITCOIN,\n",
    "    output_abfs[0],\n",
    "    generator,\n",
    "    os.urandom(32),\n",
    "    _assets,\n",
    "    _abfs,\n",
    "    _ags\n",
    ")\n",
    "\n",
    "# add our blinded output\n",
    "w.tx_add_elements_raw_output(\n",
    "    tx,\n",
    "    to_scriptPubKey,\n",
    "    generator,\n",
    "    value_commitment,\n",
    "    eph_pk, # nonce\n",
    "    surjectionproof,\n",
    "    rangeproof,\n",
    "    0\n",
    ")\n",
    "\n",
    "# and the explicit fee output\n",
    "w.tx_add_elements_raw_output(\n",
    "    tx,\n",
    "    None,\n",
    "    bytearray([0x01]) + BITCOIN,\n",
    "    w.tx_confidential_value_from_satoshi(80000000 - satoshi_out_amount),\n",
    "    None, # nonce\n",
    "    None, # surjection proof\n",
    "    None, # range proof\n",
    "    0)"
   ]
  },
  {
   "cell_type": "code",
   "execution_count": 4,
   "metadata": {},
   "outputs": [
    {
     "name": "stdout",
     "output_type": "stream",
     "text": [
      "hash to sign: 3a1746e85b4b0eb74a9766f6825a69f715a0dd7abe68024388c1565c4a692dc4\n"
     ]
    }
   ],
   "source": [
    "prev_sciptPubKey = w.hex_to_bytes(\"76a9145976d83033bde4f12713ae3706b25e92fb608b9188ac\")\n",
    "sighash = w.tx_get_btc_signature_hash(tx, 0, prev_sciptPubKey, 0, w.WALLY_SIGHASH_ALL, 0)\n",
    "\n",
    "print(\"hash to sign: {}\".format(w.hex_from_bytes(sighash)))"
   ]
  },
  {
   "cell_type": "code",
   "execution_count": 5,
   "metadata": {},
   "outputs": [
    {
     "name": "stdout",
     "output_type": "stream",
     "text": [
      "Signed: 020000000101282ae780e4608fba3433b9a0185f7f644ed6d256ad0b3d1b21a8639f4c4f1282000000006a47304402203fb352877f02620a50952f0e8fa8b1cb8e55710c39548c1894753e1a9ea3f8a50220220abb8e916d5c83d63352cfee24021131e6914ed9dbcc97893098d62b15e72e012102986afea1478a0d047147fdf8e577db8171a5a785488fedc0dc4eb99a9649bb09ffffffff020b03ece48acdea32fc8b285aa44fd975ca1c386014b9103ad4c2dc3598838a7eb808d81c127db9e7819aad3bd887f77a222bd6bf3af8026b2a533d2dcabf1af501930331c14e0950e09d26dcd816a16ece24752fc0f6f7990a25b1cf812f55a305098e17a9145640708a017baae6be092eeb2da6b8633833c6d6870125b251070e29ca19043cf33ccd7324e2ddab03ecc4ae0b5e77c4fc0e5cf6c95a010000000000002710000000000000000000004301000113282ee31bb320b3741a56b3a330a963b20eaec3f8689f9fa52385772ad1c17d3ab95a1e4c3d1a4c039d2c04d459e3aaf2a34701933886ade925b6e44e75f694fd4d0b60230000000000000001d712015775f9b8f05acfc287fadf73687f6011aab181bc8ff6c295d6685a48d50445398dc9d18558b0a53d31604134b4ed9846eb6495fa2973ceb49feb10cf96ec6625e5e68ec05fe0806f704d6117bc55905fd90268fc29efc98ee52bf2d43d1e7ba67419ba413fd7789c3113f4b33ef3afc5d7466b73a6c48bde2b566d35c17b3a1c3bf51f9b97dcd05173aaa1968e5e4aaca22f86b41815df43958e016ce56e4284eeca78306943e55b1e8b7a4b3e0b3dfbf2927b22bbf20b5df21cdbb08b65b44060a3851d26db4d16dc6eee9d5400d39b1f7f26d5d66b5594d4572038b368226db8553044b2db9bcf840f47d72d058b266bf3c2963de0c96cb57441ec459e16423922a94c2019abdb7f043ce857578a46d6c0983ea0a159e3e0ca0b33549eaba55a31c5ae1742710be46e1f44831a7b73086483a742cb6d81eb0944edcd8d6dd7b46d29a2d3f3672cfcaec2c8840f5fc9e26d1f58473cdcc2f010e3af2f8ac257f3ce7c784bfdfa3a0afe448347e3aa0590b4a087d15784dfa9b0fac6d08b60ed192a949f163d0b6c0d3cbac081ab7366cc4516ccab564af803b0f5d931bc05908852a3da5e76ef671821464d9d74d37338821a60dec5953522f02ceb51c04279eb4a5c60e03fba9673db85ae4bfaebd393ecc56a93113da4c4017b6ca3c40ac62169f1a673c4d605e2115dbb074b945ea3bd82ba9341d47c870258d8230036e416cd734ba7d2ac0c051959b50c830114e2d6b5f0780cf355069ae04c371ff1c42f3e30bb2f57eb836af6cba5dc6ceeb9275fc13893663ea590edcdb1b8c4d34c656e5d0d3494d1427d73fce59e0b23f49f2968e59141214c0799c3fe0500cb6a619289300408fced268d1227d100a79c14f8bc9abb6ea8bd274bb58c3197e216473d2f238e4229f18033bb14ddc4fd285d49a1d301b964dc02220a691225734cc5ceb36603288009d9f69398250a6d99809101518ed2158af0044874a9d718b56b4747cb1f3c584fa1bb4f747b89609f09341e96aaec2c4a49d7cd390d4b440d299f9444e82b0c5f3712e7af9229cf0344a5416c6c8feb3d0e96203a240f3734201879c4758de087d20f778818edb1e644880aebd2dd7936c6b440c33090c61e9e99cd26ef7eabaf83e2cfbbdf0894ac0cfa10f7acd62d4f65cce8c70f08081f4750242aa5043fcb15e9e93eaf54d3ebaf458e7bdff8930375a301c98741164d7d4d48ec39ccc869f51c9a1cc3cfbdb662e6f37038d2fc14fcda9a7a8da7b375b7de95fc681561f3168253c171937e5445138b38826786beb0bd45d3b69fbfa6d81ca0a84e6fa3eb49b2713d98fb0ed90438f7a2adedf4ba084ca35b8fb1210d6c56dae98e482ec2f806eaf6c3d604da2a811228d478b8a9ad4c35c7f5947db31ec21e7fe9b00ecf5d1a2e98bb51af377402f233bcaabfba6254b54e027723d39721504b700ff6a3176d33caf5d195dd92683ffb561c84b3b2d4c4a732f6866d84358a440af8421366783cd0f97891dc5fe1dd19c99ede5139432e617ae80d6bb4b4fe88782d81acec60dde93ea0ca16c0bd261c40889501a4c0b01a530b0fe96e03f362801852a3b70fdcd1b94a9c7e2c5276d98f40d38a668f863425aa92d34de0e487c6e48e0a694650532373f3f2d973457eaaabe46cee7eda743251cdcb0c9a0359404be6ea0c234f0bbd5e0ddbcb90f8f299592122beb436eaa2ba92807b1d4fa10f5b58b71bca9f9530f2928204d5f6931654e7906ab01d712d4b3291a01c23c9adaab3c48773a8c43f4065efb58670c1cbcd6bfd7417575dd80487bcc19cce4b4c3ba02cf18b429ca7438681a43cb5cc84dbc7abb7d7ce7fb4436a6476e02b0eed1a71a61afbbf0956954971fb6bb0515d166431971a116610f7ff4363cc760c55de6bd33028a4729a55ce63c868fa6e7df0569376177d3d7aff5e429e6686910a1fd0dcee8b4ff67b8043f136cf397d8d5f5f88ff87e89636596752f4367ef17a932a20f730e2fb9717014ca686a2fcdacd594474cc5bda15c5a34b854fb9efdc2d5877fd4836b6b0b261bdf0db1376194399e3103553d4040c1198bf48e7e5003bf8456ae4a8a68fb08aa1d00d67ca763bb93e6fdd04381aa2ca8af19a4092bd2b2ed6d350b7300f336ff2af2f081bc3ab5a8f4727890d75ec734ada80cd5e2566779ebfc4da9afdbb12ef1351487682b8ba0979e28f56e07da59ade546c8661206d2eff4a6bbd5488b733225381f143181e67a6bb4bdfca1def6e83a7d1cf1d08f50dd722d120fea4ae61b325dcb45279dcd0d7a3560bef399da38098018f8e6e4378ec4bd4d8edf02145a66519a92fbb60ed3a9cce964498fde488bb1ab4aa53a0c6073703d0d83548f3e13c8c08af0f6b55be3b996833e09f148ccaa1a417120a60099b0ebf7e896bdb2b6986c1f3dab986e03d1854312d83a93bc3cf37b23f97d273ae632899c114bccd9febb58c7d55f1c9bee990d3434085bc8c18805e7a189ce45bbaed2b19075dfcc99a7260b25560b44ddf1d969be30f9c9e6b2ce74a1966391b682f1cf8117adb8327864bb866955cc11983a0018c302e78ad838a0a8d36efe5d4400d8ca0d70354ead7f6e4830909c8fad36caf63e41034bfb1bdeee219fe155ebba2f3320b3b01f05ce1de2dda5b69bc95ff6e1f85ab73f395d054f9dd66c7a8e4d12677c333cd6eab0a6a099aa38a3ae8f117abb8668715ed86f1649a02e4fa6fe78aba31fe4804f9e051f80ae5ab532fbae3c4d24787baafd068b3b25f342155d27665e15e842b96247923404e1adf8064675bfb7c51dbe7912eaa48fffa49cb6b40b19e2ef76c36f1af326297987d5888c77ca442271b1e019d6875e1263238418a773a286910e6f9b5932cace377419f06b8f005eb6d094ce22e48d79d1d67e32b251db317e5edb9bfa707a9d0cbe67453dc3857dad21f07afa0eb4400314e5c135e8dc4f990deed340e747e24ffd45ce690bc2aebf9dab2c4b58103c6b6fecababc0b84d995a04aeea5b1a35e96467f9a39f13552d086b5ea156fe2077200a686e41df64971acbac20c1066f8cb5356c062d17f450450ec0af2f3de4fbc58f792bb49a90fec01fb89a5c8e110e1610503e4b0bfde5a25b713ea227194ab88cb67e157734cab7902d30100482b06a982f4c69a1a1967679a53ae1714eabdce45f09e58a8d60faef153855475f42184bc7dede712cf89cd149146f1c34db45e4adc03acb7c73d6fcd1cbaa9bea4f7f24a0dfc13a1b80afeccb09d9385a1912fcee9762917bd60a4e7049198073b0eef589ffa61f97fed4bc6d631c597b4e8cccda8114addfca4192cb7b9ace5b545a7300201040e646b139b6fe48a251a49daefc1dc4a25046f71ad2b910b3a23a1a5cdce916f4567d5d1f2d59c5771415cac2dd3701a0f4fd7ee8d2b3462c86acc4bea451e59cb932b58c17c570d84c6507edb88df126258eb297769665d293499532d751d3aef545b419bf6a50a0fede235788d3eda8fea3a25d03651eb4b46774a3555fef63a9f7e2db648629ca1a8466adfa06155eb0c4765b5f2d1c06d6c52b1acd8366c73517504dc24fff20534054e674b760eb514c0898ce28db0cd449e020fb96562496668b109b036d8578411247bdefa44c4528aa6e09aa70f0d233310513864b5ff003ce813fa767a0b9136b854740ec130c21e4afcd7d59aadf9b09c124c9d6311cc7e82ba7765332687fc96ad8a4dec8add7cd75ca17ce0e45fdd4c5bc56197eb771e36661d1d38c31ba08f77d2de8a3ba3da0c4a4e83ebcd5b7f29113e00802fe4d5a99a1ff0b247315f373502b06aeaaa2280a03555cccd3522ce66e87b95e1c607ed4ec6f82f6c3b53fa212756ae4e2592f8422d2a82a380f173be1107fc98bdc1cc94a9a1f262fe86d7e9cce6dfa7e46cf75930219342b2ed4e491c203e71e24f88279c8ab7e059c4f564a5f1f25d50061eb04cee2ea8398e01f19688ad95aabc1173115e19cd25f3732d60db61d54017d41ebf792e5376a50912872f363df2328e5b47e94ee9d73170f23aecb40f56e3580e30e1a558b831d9b3f379dc0000\n"
     ]
    }
   ],
   "source": [
    "signature = w.ec_sig_from_bytes(privkey, sighash, w.EC_FLAG_ECDSA)\n",
    "\n",
    "scriptsig = w.scriptsig_p2pkh_from_sig(pubkey, signature, w.WALLY_SIGHASH_ALL)\n",
    "w.tx_set_input_script(tx, 0, scriptsig)\n",
    "\n",
    "print(\"Signed: {}\".format(w.tx_to_hex(tx, w.WALLY_TX_FLAG_USE_WITNESS)))"
   ]
  }
 ],
 "metadata": {
  "kernelspec": {
   "display_name": "Python 3",
   "language": "python",
   "name": "python3"
  },
  "language_info": {
   "codemirror_mode": {
    "name": "ipython",
    "version": 3
   },
   "file_extension": ".py",
   "mimetype": "text/x-python",
   "name": "python",
   "nbconvert_exporter": "python",
   "pygments_lexer": "ipython3",
   "version": "3.7.3"
  }
 },
 "nbformat": 4,
 "nbformat_minor": 2
}
